{
  "_format": "hh-sol-artifact-1",
  "contractName": "IgboLandingNFT",
  "sourceName": "contracts/IgboLandingNFT.sol",
  "abi": [
    {
      "inputs": [],
      "stateMutability": "nonpayable",
      "type": "constructor"
    },
    {
      "anonymous": false,
      "inputs": [
        {
          "indexed": true,
          "internalType": "address",
          "name": "owner",
          "type": "address"
        },
        {
          "indexed": true,
          "internalType": "address",
          "name": "approved",
          "type": "address"
        },
        {
          "indexed": true,
          "internalType": "uint256",
          "name": "tokenId",
          "type": "uint256"
        }
      ],
      "name": "Approval",
      "type": "event"
    },
    {
      "anonymous": false,
      "inputs": [
        {
          "indexed": true,
          "internalType": "address",
          "name": "owner",
          "type": "address"
        },
        {
          "indexed": true,
          "internalType": "address",
          "name": "operator",
          "type": "address"
        },
        {
          "indexed": false,
          "internalType": "bool",
          "name": "approved",
          "type": "bool"
        }
      ],
      "name": "ApprovalForAll",
      "type": "event"
    },
    {
      "anonymous": false,
      "inputs": [
        {
          "indexed": true,
          "internalType": "address",
          "name": "from",
          "type": "address"
        },
        {
          "indexed": true,
          "internalType": "address",
          "name": "to",
          "type": "address"
        },
        {
          "indexed": true,
          "internalType": "uint256",
          "name": "tokenId",
          "type": "uint256"
        }
      ],
      "name": "Transfer",
      "type": "event"
    },
    {
      "inputs": [
        {
          "internalType": "address",
          "name": "to",
          "type": "address"
        },
        {
          "internalType": "uint256",
          "name": "tokenId",
          "type": "uint256"
        }
      ],
      "name": "approve",
      "outputs": [],
      "stateMutability": "nonpayable",
      "type": "function"
    },
    {
      "inputs": [
        {
          "internalType": "address",
          "name": "owner",
          "type": "address"
        }
      ],
      "name": "balanceOf",
      "outputs": [
        {
          "internalType": "uint256",
          "name": "",
          "type": "uint256"
        }
      ],
      "stateMutability": "view",
      "type": "function"
    },
    {
      "inputs": [
        {
          "internalType": "uint256",
          "name": "tokenId",
          "type": "uint256"
        }
      ],
      "name": "getApproved",
      "outputs": [
        {
          "internalType": "address",
          "name": "",
          "type": "address"
        }
      ],
      "stateMutability": "view",
      "type": "function"
    },
    {
      "inputs": [
        {
          "internalType": "address",
          "name": "owner",
          "type": "address"
        },
        {
          "internalType": "address",
          "name": "operator",
          "type": "address"
        }
      ],
      "name": "isApprovedForAll",
      "outputs": [
        {
          "internalType": "bool",
          "name": "",
          "type": "bool"
        }
      ],
      "stateMutability": "view",
      "type": "function"
    },
    {
      "inputs": [],
      "name": "makeAnIgboLandingNFT",
      "outputs": [],
      "stateMutability": "nonpayable",
      "type": "function"
    },
    {
      "inputs": [],
      "name": "name",
      "outputs": [
        {
          "internalType": "string",
          "name": "",
          "type": "string"
        }
      ],
      "stateMutability": "view",
      "type": "function"
    },
    {
      "inputs": [
        {
          "internalType": "uint256",
          "name": "tokenId",
          "type": "uint256"
        }
      ],
      "name": "ownerOf",
      "outputs": [
        {
          "internalType": "address",
          "name": "",
          "type": "address"
        }
      ],
      "stateMutability": "view",
      "type": "function"
    },
    {
      "inputs": [
        {
          "internalType": "uint256",
          "name": "tokenId",
          "type": "uint256"
        }
      ],
      "name": "pickRandomFirstWord",
      "outputs": [
        {
          "internalType": "string",
          "name": "",
          "type": "string"
        }
      ],
      "stateMutability": "view",
      "type": "function"
    },
    {
      "inputs": [
        {
          "internalType": "uint256",
          "name": "tokenId",
          "type": "uint256"
        }
      ],
      "name": "pickRandomSecondWord",
      "outputs": [
        {
          "internalType": "string",
          "name": "",
          "type": "string"
        }
      ],
      "stateMutability": "view",
      "type": "function"
    },
    {
      "inputs": [
        {
          "internalType": "uint256",
          "name": "tokenId",
          "type": "uint256"
        }
      ],
      "name": "pickRandomThirdWord",
      "outputs": [
        {
          "internalType": "string",
          "name": "",
          "type": "string"
        }
      ],
      "stateMutability": "view",
      "type": "function"
    },
    {
      "inputs": [
        {
          "internalType": "address",
          "name": "from",
          "type": "address"
        },
        {
          "internalType": "address",
          "name": "to",
          "type": "address"
        },
        {
          "internalType": "uint256",
          "name": "tokenId",
          "type": "uint256"
        }
      ],
      "name": "safeTransferFrom",
      "outputs": [],
      "stateMutability": "nonpayable",
      "type": "function"
    },
    {
      "inputs": [
        {
          "internalType": "address",
          "name": "from",
          "type": "address"
        },
        {
          "internalType": "address",
          "name": "to",
          "type": "address"
        },
        {
          "internalType": "uint256",
          "name": "tokenId",
          "type": "uint256"
        },
        {
          "internalType": "bytes",
          "name": "_data",
          "type": "bytes"
        }
      ],
      "name": "safeTransferFrom",
      "outputs": [],
      "stateMutability": "nonpayable",
      "type": "function"
    },
    {
      "inputs": [
        {
          "internalType": "address",
          "name": "operator",
          "type": "address"
        },
        {
          "internalType": "bool",
          "name": "approved",
          "type": "bool"
        }
      ],
      "name": "setApprovalForAll",
      "outputs": [],
      "stateMutability": "nonpayable",
      "type": "function"
    },
    {
      "inputs": [
        {
          "internalType": "bytes4",
          "name": "interfaceId",
          "type": "bytes4"
        }
      ],
      "name": "supportsInterface",
      "outputs": [
        {
          "internalType": "bool",
          "name": "",
          "type": "bool"
        }
      ],
      "stateMutability": "view",
      "type": "function"
    },
    {
      "inputs": [],
      "name": "symbol",
      "outputs": [
        {
          "internalType": "string",
          "name": "",
          "type": "string"
        }
      ],
      "stateMutability": "view",
      "type": "function"
    },
    {
      "inputs": [
        {
          "internalType": "uint256",
          "name": "tokenId",
          "type": "uint256"
        }
      ],
      "name": "tokenURI",
      "outputs": [
        {
          "internalType": "string",
          "name": "",
          "type": "string"
        }
      ],
      "stateMutability": "view",
      "type": "function"
    },
    {
      "inputs": [
        {
          "internalType": "address",
          "name": "from",
          "type": "address"
        },
        {
          "internalType": "address",
          "name": "to",
          "type": "address"
        },
        {
          "internalType": "uint256",
          "name": "tokenId",
          "type": "uint256"
        }
      ],
      "name": "transferFrom",
      "outputs": [],
      "stateMutability": "nonpayable",
      "type": "function"
    }
  ],
  "bytecode": "0x608060405260405180610160016040528061012f815260200162004bfe61012f9139600890805190602001906200003892919062000d4f565b506040518061020001604052806040518060400160405280600581526020017f486170707900000000000000000000000000000000000000000000000000000081525081526020016040518060400160405280600981526020017f46616e746173746963000000000000000000000000000000000000000000000081525081526020016040518060400160405280600981526020017f496e63726564696265000000000000000000000000000000000000000000000081525081526020016040518060400160405280600781526020017f417765736f6d650000000000000000000000000000000000000000000000000081525081526020016040518060400160405280600c81526020017f4d696e642d626c6f77696e67000000000000000000000000000000000000000081525081526020016040518060400160405280601681526020017f4162736f6c7574654675636b696e67417765736f6d650000000000000000000081525081526020016040518060400160405280600381526020017f4a6f79000000000000000000000000000000000000000000000000000000000081525081526020016040518060400160405280600481526020017f476c61640000000000000000000000000000000000000000000000000000000081525081526020016040518060400160405280600781526020017f46726565646f6d0000000000000000000000000000000000000000000000000081525081526020016040518060400160405280600581526020017f4c6967687400000000000000000000000000000000000000000000000000000081525081526020016040518060400160405280600381526020017f536164000000000000000000000000000000000000000000000000000000000081525081526020016040518060400160405280600781526020017f466174696775650000000000000000000000000000000000000000000000000081525081526020016040518060400160405280600781526020017f426f7265646f6d0000000000000000000000000000000000000000000000000081525081526020016040518060400160405280600581526020017f416e67727900000000000000000000000000000000000000000000000000000081525081526020016040518060400160405280600381526020017f536879000000000000000000000000000000000000000000000000000000000081525081526020016040518060400160405280600781526020017f436f6e74656e740000000000000000000000000000000000000000000000000081525081525060099060106200040592919062000de0565b506040518061020001604052806040518060400160405280600881526020017f496365637265616d00000000000000000000000000000000000000000000000081525081526020016040518060400160405280600581526020017f50697a7a6100000000000000000000000000000000000000000000000000000081525081526020016040518060400160405280600781526020017f506f70636f726e0000000000000000000000000000000000000000000000000081525081526020016040518060400160405280600681526020017f596f67757274000000000000000000000000000000000000000000000000000081525081526020016040518060400160405280600981526020017f537061676865747469000000000000000000000000000000000000000000000081525081526020016040518060400160405280600581526020017f5461636f7300000000000000000000000000000000000000000000000000000081525081526020016040518060400160405280601481526020017f436869636b2066696c2d412053616e647769636800000000000000000000000081525081526020016040518060400160405280601681526020017f537069637920536f7574682d776573742073616c61640000000000000000000081525081526020016040518060400160405280601881526020017f50616e646120457870726573732066726965642072696365000000000000000081525081526020016040518060400160405280600981526020017f536f79207361756365000000000000000000000000000000000000000000000081525081526020016040518060400160405280600581526020017f416d616c6100000000000000000000000000000000000000000000000000000081525081526020016040518060400160405280600381526020017f456261000000000000000000000000000000000000000000000000000000000081525081526020016040518060400160405280600881526020017f547261696c4d697800000000000000000000000000000000000000000000000081525081526020016040518060400160405280600f81526020017f4372616e6265727279204a75696365000000000000000000000000000000000081525081526020016040518060400160405280600d81526020017f467269656420436869636b656e0000000000000000000000000000000000000081525081526020016040518060400160405280600b81526020017f4a6f6c6c6f662052696365000000000000000000000000000000000000000000815250815250600a906010620007d292919062000de0565b506040518061020001604052806040518060400160405280600c81526020017f4e6f6e2d6578697374616e74000000000000000000000000000000000000000081525081526020016040518060400160405280600481526020017f4c6966650000000000000000000000000000000000000000000000000000000081525081526020016040518060400160405280600581526020017f446561746800000000000000000000000000000000000000000000000000000081525081526020016040518060400160405280600b81526020017f496d6d6f7274616c69747900000000000000000000000000000000000000000081525081526020016040518060400160405280600981526020017f4b6e6f776c65646765000000000000000000000000000000000000000000000081525081526020016040518060400160405280600d81526020017f556e6465727374616e64696e670000000000000000000000000000000000000081525081526020016040518060400160405280600a81526020017f53696d706c69636974790000000000000000000000000000000000000000000081525081526020016040518060400160405280600681526020017f576973646f6d000000000000000000000000000000000000000000000000000081525081526020016040518060400160405280600381526020017f414749000000000000000000000000000000000000000000000000000000000081525081526020016040518060400160405280601081526020017f5175616e74756d204d616368696e65730000000000000000000000000000000081525081526020016040518060400160405280601081526020017f5175616e74756d2052656163746f72730000000000000000000000000000000081525081526020016040518060400160405280601781526020017f4d756c746964696d656e73696f6e616c20456e6572677900000000000000000081525081526020016040518060400160405280600f81526020017f496e66696e69746520456e65726779000000000000000000000000000000000081525081526020016040518060400160405280600e81526020017f476c6f62616c205761726d696e6700000000000000000000000000000000000081525081526020016040518060400160405280601081526020017f5a6f6d6269652041706f63616c7973650000000000000000000000000000000081525081526020016040518060400160405280600f81526020017f5265642044656174682056697275730000000000000000000000000000000000815250815250600b90601062000b9f92919062000de0565b5034801562000bad57600080fd5b506040518060400160405280600e81526020017f4967626f4c616e64696e674e46540000000000000000000000000000000000008152506040518060400160405280600b81526020017f4947424f4c414e44494e47000000000000000000000000000000000000000000815250816000908051906020019062000c3292919062000d4f565b50806001908051906020019062000c4b92919062000d4f565b50505062000c7d60405180606001604052806029815260200162004bd56029913962000c8360201b620011681760201c565b62001001565b62000d238160405160240162000c9a919062000f15565b6040516020818303038152906040527f41304fac000000000000000000000000000000000000000000000000000000007bffffffffffffffffffffffffffffffffffffffffffffffffffffffff19166020820180517bffffffffffffffffffffffffffffffffffffffffffffffffffffffff838183161783525050505062000d2660201b60201c565b50565b60008151905060006a636f6e736f6c652e6c6f679050602083016000808483855afa5050505050565b82805462000d5d9062000f8b565b90600052602060002090601f01602090048101928262000d81576000855562000dcd565b82601f1062000d9c57805160ff191683800117855562000dcd565b8280016001018555821562000dcd579182015b8281111562000dcc57825182559160200191906001019062000daf565b5b50905062000ddc919062000e47565b5090565b82805482825590600052602060002090810192821562000e34579160200282015b8281111562000e3357825182908051906020019062000e2292919062000d4f565b509160200191906001019062000e01565b5b50905062000e43919062000e66565b5090565b5b8082111562000e6257600081600090555060010162000e48565b5090565b5b8082111562000e8a576000818162000e80919062000e8e565b5060010162000e67565b5090565b50805462000e9c9062000f8b565b6000825580601f1062000eb0575062000ed1565b601f01602090049060005260206000209081019062000ed0919062000e47565b5b50565b600062000ee18262000f39565b62000eed818562000f44565b935062000eff81856020860162000f55565b62000f0a8162000ff0565b840191505092915050565b6000602082019050818103600083015262000f31818462000ed4565b905092915050565b600081519050919050565b600082825260208201905092915050565b60005b8381101562000f7557808201518184015260208101905062000f58565b8381111562000f85576000848401525b50505050565b6000600282049050600182168062000fa457607f821691505b6020821081141562000fbb5762000fba62000fc1565b5b50919050565b7f4e487b7100000000000000000000000000000000000000000000000000000000600052602260045260246000fd5b6000601f19601f8301169050919050565b613bc480620010116000396000f3fe608060405234801561001057600080fd5b506004361061010b5760003560e01c80636352211e116100a2578063b187301f11610071578063b187301f146102b6578063b88d4fde146102e6578063c575757a14610302578063c87b56dd14610332578063e985e9c5146103625761010b565b80636352211e1461021c57806370a082311461024c57806395d89b411461027c578063a22cb4651461029a5761010b565b806323b872dd116100de57806323b872dd146101aa5780632de38d68146101c657806342842e0e146101f65780635bfa6fc6146102125761010b565b806301ffc9a71461011057806306fdde0314610140578063081812fc1461015e578063095ea7b31461018e575b600080fd5b61012a60048036038101906101259190612630565b610392565b6040516101379190612d56565b60405180910390f35b610148610474565b6040516101559190612d71565b60405180910390f35b61017860048036038101906101739190612682565b610506565b6040516101859190612cef565b60405180910390f35b6101a860048036038101906101a391906125f4565b61058b565b005b6101c460048036038101906101bf91906124ee565b6106a3565b005b6101e060048036038101906101db9190612682565b610703565b6040516101ed9190612d71565b60405180910390f35b610210600480360381019061020b91906124ee565b610821565b005b61021a610841565b005b61023660048036038101906102319190612682565b610ad2565b6040516102439190612cef565b60405180910390f35b61026660048036038101906102619190612489565b610b84565b6040516102739190613008565b60405180910390f35b610284610c3c565b6040516102919190612d71565b60405180910390f35b6102b460048036038101906102af91906125b8565b610cce565b005b6102d060048036038101906102cb9190612682565b610ce4565b6040516102dd9190612d71565b60405180910390f35b61030060048036038101906102fb919061253d565b610e02565b005b61031c60048036038101906103179190612682565b610e64565b6040516103299190612d71565b60405180910390f35b61034c60048036038101906103479190612682565b610f82565b6040516103599190612d71565b60405180910390f35b61037c600480360381019061037791906124b2565b6110d4565b6040516103899190612d56565b60405180910390f35b60007f80ac58cd000000000000000000000000000000000000000000000000000000007bffffffffffffffffffffffffffffffffffffffffffffffffffffffff1916827bffffffffffffffffffffffffffffffffffffffffffffffffffffffff1916148061045d57507f5b5e139f000000000000000000000000000000000000000000000000000000007bffffffffffffffffffffffffffffffffffffffffffffffffffffffff1916827bffffffffffffffffffffffffffffffffffffffffffffffffffffffff1916145b8061046d575061046c82611201565b5b9050919050565b6060600080546104839061329c565b80601f01602080910402602001604051908101604052809291908181526020018280546104af9061329c565b80156104fc5780601f106104d1576101008083540402835291602001916104fc565b820191906000526020600020905b8154815290600101906020018083116104df57829003601f168201915b5050505050905090565b60006105118261126b565b610550576040517f08c379a000000000000000000000000000000000000000000000000000000000815260040161054790612f88565b60405180910390fd5b6004600083815260200190815260200160002060009054906101000a900473ffffffffffffffffffffffffffffffffffffffff169050919050565b600061059682610ad2565b90508073ffffffffffffffffffffffffffffffffffffffff168373ffffffffffffffffffffffffffffffffffffffff161415610607576040517f08c379a00000000000000000000000000000000000000000000000000000000081526004016105fe90612fc8565b60405180910390fd5b8073ffffffffffffffffffffffffffffffffffffffff166106266112d7565b73ffffffffffffffffffffffffffffffffffffffff16148061065557506106548161064f6112d7565b6110d4565b5b610694576040517f08c379a000000000000000000000000000000000000000000000000000000000815260040161068b90612ec8565b60405180910390fd5b61069e83836112df565b505050565b6106b46106ae6112d7565b82611398565b6106f3576040517f08c379a00000000000000000000000000000000000000000000000000000000081526004016106ea90612fe8565b60405180910390fd5b6106fe838383611476565b505050565b60606000610737610713846116dd565b6040516020016107239190612cab565b60405160208183030381529060405261188a565b90506009805490508161074a9190613348565b905060098181548110610786577f4e487b7100000000000000000000000000000000000000000000000000000000600052603260045260246000fd5b90600052602060002001805461079b9061329c565b80601f01602080910402602001604051908101604052809291908181526020018280546107c79061329c565b80156108145780601f106107e957610100808354040283529160200191610814565b820191906000526020600020905b8154815290600101906020018083116107f757829003601f168201915b5050505050915050919050565b61083c83838360405180602001604052806000815250610e02565b505050565b600061084d60076118bd565b9050600061085a82610703565b9050600061086783610ce4565b9050600061087484610e64565b9050600083838360405160200161088d93929190612ba0565b604051602081830303815290604052905060006008826040516020016108b4929190612bd1565b604051602081830303815290604052905060006108f9836108d4846118cb565b6040516020016108e5929190612c66565b6040516020818303038152906040526118cb565b905060008160405160200161090e9190612ccd565b604051602081830303815290604052905061095d6040518060400160405280601581526020017f0a2d2d2d2d2d2d2d2d2d2d2d2d2d2d2d2d2d2d2d2d0000000000000000000000815250611168565b61099b6040518060400160405280600b81526020017f46696e616c20535647200a000000000000000000000000000000000000000000815250611168565b6109a483611168565b6109e26040518060400160405280601081526020017f496d616765204d65746164617461200a00000000000000000000000000000000815250611168565b6109eb81611168565b610a496040518060400160405280600d81526020017f4e46542050726576696577200a0000000000000000000000000000000000000081525082604051602001610a359190612c00565b604051602081830303815290604052611a89565b610a876040518060400160405280601581526020017f2d2d2d2d2d2d2d2d2d2d2d2d2d2d2d2d2d2d2d2d0a0000000000000000000000815250611168565b610a913389611b25565b610a9b8882611b43565b610aa56007611bb7565b610ac8604051806060016040528060258152602001613b2a602591398933611bcd565b5050505050505050565b6000806002600084815260200190815260200160002060009054906101000a900473ffffffffffffffffffffffffffffffffffffffff169050600073ffffffffffffffffffffffffffffffffffffffff168173ffffffffffffffffffffffffffffffffffffffff161415610b7b576040517f08c379a0000000000000000000000000000000000000000000000000000000008152600401610b7290612f08565b60405180910390fd5b80915050919050565b60008073ffffffffffffffffffffffffffffffffffffffff168273ffffffffffffffffffffffffffffffffffffffff161415610bf5576040517f08c379a0000000000000000000000000000000000000000000000000000000008152600401610bec90612ee8565b60405180910390fd5b600360008373ffffffffffffffffffffffffffffffffffffffff1673ffffffffffffffffffffffffffffffffffffffff168152602001908152602001600020549050919050565b606060018054610c4b9061329c565b80601f0160208091040260200160405190810160405280929190818152602001828054610c779061329c565b8015610cc45780601f10610c9957610100808354040283529160200191610cc4565b820191906000526020600020905b815481529060010190602001808311610ca757829003601f168201915b5050505050905090565b610ce0610cd96112d7565b8383611c6c565b5050565b60606000610d18610cf4846116dd565b604051602001610d049190612c44565b60405160208183030381529060405261188a565b9050600a8054905081610d2b9190613348565b9050600a8181548110610d67577f4e487b7100000000000000000000000000000000000000000000000000000000600052603260045260246000fd5b906000526020600020018054610d7c9061329c565b80601f0160208091040260200160405190810160405280929190818152602001828054610da89061329c565b8015610df55780601f10610dca57610100808354040283529160200191610df5565b820191906000526020600020905b815481529060010190602001808311610dd857829003601f168201915b5050505050915050919050565b610e13610e0d6112d7565b83611398565b610e52576040517f08c379a0000000000000000000000000000000000000000000000000000000008152600401610e4990612fe8565b60405180910390fd5b610e5e84848484611dd9565b50505050565b60606000610e98610e74846116dd565b604051602001610e849190612c22565b60405160208183030381529060405261188a565b9050600b8054905081610eab9190613348565b9050600b8181548110610ee7577f4e487b7100000000000000000000000000000000000000000000000000000000600052603260045260246000fd5b906000526020600020018054610efc9061329c565b80601f0160208091040260200160405190810160405280929190818152602001828054610f289061329c565b8015610f755780601f10610f4a57610100808354040283529160200191610f75565b820191906000526020600020905b815481529060010190602001808311610f5857829003601f168201915b5050505050915050919050565b6060610f8d8261126b565b610fcc576040517f08c379a0000000000000000000000000000000000000000000000000000000008152600401610fc390612f68565b60405180910390fd5b6000600660008481526020019081526020016000208054610fec9061329c565b80601f01602080910402602001604051908101604052809291908181526020018280546110189061329c565b80156110655780601f1061103a57610100808354040283529160200191611065565b820191906000526020600020905b81548152906001019060200180831161104857829003601f168201915b505050505090506000611076611e35565b905060008151141561108c5781925050506110cf565b6000825111156110c15780826040516020016110a9929190612b7c565b604051602081830303815290604052925050506110cf565b6110ca84611e4c565b925050505b919050565b6000600560008473ffffffffffffffffffffffffffffffffffffffff1673ffffffffffffffffffffffffffffffffffffffff16815260200190815260200160002060008373ffffffffffffffffffffffffffffffffffffffff1673ffffffffffffffffffffffffffffffffffffffff16815260200190815260200160002060009054906101000a900460ff16905092915050565b6111fe8160405160240161117c9190612d71565b6040516020818303038152906040527f41304fac000000000000000000000000000000000000000000000000000000007bffffffffffffffffffffffffffffffffffffffffffffffffffffffff19166020820180517bffffffffffffffffffffffffffffffffffffffffffffffffffffffff8381831617835250505050611ef3565b50565b60007f01ffc9a7000000000000000000000000000000000000000000000000000000007bffffffffffffffffffffffffffffffffffffffffffffffffffffffff1916827bffffffffffffffffffffffffffffffffffffffffffffffffffffffff1916149050919050565b60008073ffffffffffffffffffffffffffffffffffffffff166002600084815260200190815260200160002060009054906101000a900473ffffffffffffffffffffffffffffffffffffffff1673ffffffffffffffffffffffffffffffffffffffff1614159050919050565b600033905090565b816004600083815260200190815260200160002060006101000a81548173ffffffffffffffffffffffffffffffffffffffff021916908373ffffffffffffffffffffffffffffffffffffffff160217905550808273ffffffffffffffffffffffffffffffffffffffff1661135283610ad2565b73ffffffffffffffffffffffffffffffffffffffff167f8c5be1e5ebec7d5bd14f71427d1e84f3dd0314c0f7b2291e5b200ac8c7c3b92560405160405180910390a45050565b60006113a38261126b565b6113e2576040517f08c379a00000000000000000000000000000000000000000000000000000000081526004016113d990612ea8565b60405180910390fd5b60006113ed83610ad2565b90508073ffffffffffffffffffffffffffffffffffffffff168473ffffffffffffffffffffffffffffffffffffffff16148061142f575061142e81856110d4565b5b8061146d57508373ffffffffffffffffffffffffffffffffffffffff1661145584610506565b73ffffffffffffffffffffffffffffffffffffffff16145b91505092915050565b8273ffffffffffffffffffffffffffffffffffffffff1661149682610ad2565b73ffffffffffffffffffffffffffffffffffffffff16146114ec576040517f08c379a00000000000000000000000000000000000000000000000000000000081526004016114e390612e28565b60405180910390fd5b600073ffffffffffffffffffffffffffffffffffffffff168273ffffffffffffffffffffffffffffffffffffffff16141561155c576040517f08c379a000000000000000000000000000000000000000000000000000000000815260040161155390612e68565b60405180910390fd5b611567838383611f1c565b6115726000826112df565b6001600360008573ffffffffffffffffffffffffffffffffffffffff1673ffffffffffffffffffffffffffffffffffffffff16815260200190815260200160002060008282546115c291906131b2565b925050819055506001600360008473ffffffffffffffffffffffffffffffffffffffff1673ffffffffffffffffffffffffffffffffffffffff168152602001908152602001600020600082825461161991906130d1565b92505081905550816002600083815260200190815260200160002060006101000a81548173ffffffffffffffffffffffffffffffffffffffff021916908373ffffffffffffffffffffffffffffffffffffffff160217905550808273ffffffffffffffffffffffffffffffffffffffff168473ffffffffffffffffffffffffffffffffffffffff167fddf252ad1be2c89b69c2b068fc378daa952ba7f163c4a11628f55a4df523b3ef60405160405180910390a46116d8838383611f21565b505050565b60606000821415611725576040518060400160405280600181526020017f30000000000000000000000000000000000000000000000000000000000000008152509050611885565b600082905060005b60008214611757578080611740906132ff565b915050600a826117509190613127565b915061172d565b60008167ffffffffffffffff811115611799577f4e487b7100000000000000000000000000000000000000000000000000000000600052604160045260246000fd5b6040519080825280601f01601f1916602001820160405280156117cb5781602001600182028036833780820191505090505b5090505b6000851461187e576001826117e491906131b2565b9150600a856117f39190613348565b60306117ff91906130d1565b60f81b81838151811061183b577f4e487b7100000000000000000000000000000000000000000000000000000000600052603260045260246000fd5b60200101907effffffffffffffffffffffffffffffffffffffffffffffffffffffffffffff1916908160001a905350600a856118779190613127565b94506117cf565b8093505050505b919050565b60008160405160200161189d9190612b65565b6040516020818303038152906040528051906020012060001c9050919050565b600081600001549050919050565b606060008251905060008114156118f45760405180602001604052806000815250915050611a84565b6000600360028361190591906130d1565b61190f9190613127565b600461191b9190613158565b9050600060208261192c91906130d1565b67ffffffffffffffff81111561196b577f4e487b7100000000000000000000000000000000000000000000000000000000600052604160045260246000fd5b6040519080825280601f01601f19166020018201604052801561199d5781602001600182028036833780820191505090505b5090506000604051806060016040528060408152602001613b4f604091399050600181016020830160005b86811015611a415760038101905062ffffff818a015116603f8160121c168401518060081b905060ff603f83600c1c1686015116810190508060081b905060ff603f8360061c1686015116810190508060081b905060ff603f831686015116810190508060e01b905080845260048401935050506119c8565b506003860660018114611a5b5760028114611a6b57611a76565b613d3d60f01b6002830352611a76565b603d60f81b60018303525b508484525050819450505050505b919050565b611b218282604051602401611a9f929190612d93565b6040516020818303038152906040527f4b5c4277000000000000000000000000000000000000000000000000000000007bffffffffffffffffffffffffffffffffffffffffffffffffffffffff19166020820180517bffffffffffffffffffffffffffffffffffffffffffffffffffffffff8381831617835250505050611ef3565b5050565b611b3f828260405180602001604052806000815250611f26565b5050565b611b4c8261126b565b611b8b576040517f08c379a0000000000000000000000000000000000000000000000000000000008152600401611b8290612f28565b60405180910390fd5b80600660008481526020019081526020016000209080519060200190611bb2929190612315565b505050565b6001816000016000828254019250508190555050565b611c67838383604051602401611be593929190612dca565b6040516020818303038152906040527fe3849f79000000000000000000000000000000000000000000000000000000007bffffffffffffffffffffffffffffffffffffffffffffffffffffffff19166020820180517bffffffffffffffffffffffffffffffffffffffffffffffffffffffff8381831617835250505050611ef3565b505050565b8173ffffffffffffffffffffffffffffffffffffffff168373ffffffffffffffffffffffffffffffffffffffff161415611cdb576040517f08c379a0000000000000000000000000000000000000000000000000000000008152600401611cd290612e88565b60405180910390fd5b80600560008573ffffffffffffffffffffffffffffffffffffffff1673ffffffffffffffffffffffffffffffffffffffff16815260200190815260200160002060008473ffffffffffffffffffffffffffffffffffffffff1673ffffffffffffffffffffffffffffffffffffffff16815260200190815260200160002060006101000a81548160ff0219169083151502179055508173ffffffffffffffffffffffffffffffffffffffff168373ffffffffffffffffffffffffffffffffffffffff167f17307eab39ab6107e8899845ad3d59bd9653f200f220920489ca2b5937696c3183604051611dcc9190612d56565b60405180910390a3505050565b611de4848484611476565b611df084848484611f81565b611e2f576040517f08c379a0000000000000000000000000000000000000000000000000000000008152600401611e2690612e08565b60405180910390fd5b50505050565b606060405180602001604052806000815250905090565b6060611e578261126b565b611e96576040517f08c379a0000000000000000000000000000000000000000000000000000000008152600401611e8d90612fa8565b60405180910390fd5b6000611ea0611e35565b90506000815111611ec05760405180602001604052806000815250611eeb565b80611eca846116dd565b604051602001611edb929190612b7c565b6040516020818303038152906040525b915050919050565b60008151905060006a636f6e736f6c652e6c6f679050602083016000808483855afa5050505050565b505050565b505050565b611f308383612118565b611f3d6000848484611f81565b611f7c576040517f08c379a0000000000000000000000000000000000000000000000000000000008152600401611f7390612e08565b60405180910390fd5b505050565b6000611fa28473ffffffffffffffffffffffffffffffffffffffff166122f2565b1561210b578373ffffffffffffffffffffffffffffffffffffffff1663150b7a02611fcb6112d7565b8786866040518563ffffffff1660e01b8152600401611fed9493929190612d0a565b602060405180830381600087803b15801561200757600080fd5b505af192505050801561203857506040513d601f19601f820116820180604052508101906120359190612659565b60015b6120bb573d8060008114612068576040519150601f19603f3d011682016040523d82523d6000602084013e61206d565b606091505b506000815114156120b3576040517f08c379a00000000000000000000000000000000000000000000000000000000081526004016120aa90612e08565b60405180910390fd5b805181602001fd5b63150b7a0260e01b7bffffffffffffffffffffffffffffffffffffffffffffffffffffffff1916817bffffffffffffffffffffffffffffffffffffffffffffffffffffffff191614915050612110565b600190505b949350505050565b600073ffffffffffffffffffffffffffffffffffffffff168273ffffffffffffffffffffffffffffffffffffffff161415612188576040517f08c379a000000000000000000000000000000000000000000000000000000000815260040161217f90612f48565b60405180910390fd5b6121918161126b565b156121d1576040517f08c379a00000000000000000000000000000000000000000000000000000000081526004016121c890612e48565b60405180910390fd5b6121dd60008383611f1c565b6001600360008473ffffffffffffffffffffffffffffffffffffffff1673ffffffffffffffffffffffffffffffffffffffff168152602001908152602001600020600082825461222d91906130d1565b92505081905550816002600083815260200190815260200160002060006101000a81548173ffffffffffffffffffffffffffffffffffffffff021916908373ffffffffffffffffffffffffffffffffffffffff160217905550808273ffffffffffffffffffffffffffffffffffffffff16600073ffffffffffffffffffffffffffffffffffffffff167fddf252ad1be2c89b69c2b068fc378daa952ba7f163c4a11628f55a4df523b3ef60405160405180910390a46122ee60008383611f21565b5050565b6000808273ffffffffffffffffffffffffffffffffffffffff163b119050919050565b8280546123219061329c565b90600052602060002090601f016020900481019282612343576000855561238a565b82601f1061235c57805160ff191683800117855561238a565b8280016001018555821561238a579182015b8281111561238957825182559160200191906001019061236e565b5b509050612397919061239b565b5090565b5b808211156123b457600081600090555060010161239c565b5090565b60006123cb6123c684613048565b613023565b9050828152602081018484840111156123e357600080fd5b6123ee84828561325a565b509392505050565b60008135905061240581613acd565b92915050565b60008135905061241a81613ae4565b92915050565b60008135905061242f81613afb565b92915050565b60008151905061244481613afb565b92915050565b600082601f83011261245b57600080fd5b813561246b8482602086016123b8565b91505092915050565b60008135905061248381613b12565b92915050565b60006020828403121561249b57600080fd5b60006124a9848285016123f6565b91505092915050565b600080604083850312156124c557600080fd5b60006124d3858286016123f6565b92505060206124e4858286016123f6565b9150509250929050565b60008060006060848603121561250357600080fd5b6000612511868287016123f6565b9350506020612522868287016123f6565b925050604061253386828701612474565b9150509250925092565b6000806000806080858703121561255357600080fd5b6000612561878288016123f6565b9450506020612572878288016123f6565b935050604061258387828801612474565b925050606085013567ffffffffffffffff8111156125a057600080fd5b6125ac8782880161244a565b91505092959194509250565b600080604083850312156125cb57600080fd5b60006125d9858286016123f6565b92505060206125ea8582860161240b565b9150509250929050565b6000806040838503121561260757600080fd5b6000612615858286016123f6565b925050602061262685828601612474565b9150509250929050565b60006020828403121561264257600080fd5b600061265084828501612420565b91505092915050565b60006020828403121561266b57600080fd5b600061267984828501612435565b91505092915050565b60006020828403121561269457600080fd5b60006126a284828501612474565b91505092915050565b6126b4816131e6565b82525050565b6126c3816131f8565b82525050565b60006126d48261308e565b6126de81856130a4565b93506126ee818560208601613269565b6126f781613435565b840191505092915050565b600061270d82613099565b61271781856130b5565b9350612727818560208601613269565b61273081613435565b840191505092915050565b600061274682613099565b61275081856130c6565b9350612760818560208601613269565b80840191505092915050565b600081546127798161329c565b61278381866130c6565b9450600182166000811461279e57600181146127af576127e2565b60ff198316865281860193506127e2565b6127b885613079565b60005b838110156127da578154818901526001820191506020810190506127bb565b838801955050505b50505092915050565b60006127f86025836130c6565b915061280382613446565b602582019050919050565b600061281b6032836130b5565b915061282682613495565b604082019050919050565b600061283e6025836130b5565b9150612849826134e4565b604082019050919050565b6000612861601c836130b5565b915061286c82613533565b602082019050919050565b6000612884600a836130c6565b915061288f8261355c565b600a82019050919050565b60006128a76024836130b5565b91506128b282613585565b604082019050919050565b60006128ca6019836130b5565b91506128d5826135d4565b602082019050919050565b60006128ed6063836130c6565b91506128f8826135fd565b606382019050919050565b6000612910600b836130c6565b915061291b82613698565b600b82019050919050565b6000612933602c836130b5565b915061293e826136c1565b604082019050919050565b6000612956600d836130c6565b915061296182613710565b600d82019050919050565b60006129796038836130b5565b915061298482613739565b604082019050919050565b600061299c602a836130b5565b91506129a782613788565b604082019050919050565b60006129bf6029836130b5565b91506129ca826137d7565b604082019050919050565b60006129e2602e836130b5565b91506129ed82613826565b604082019050919050565b6000612a056002836130c6565b9150612a1082613875565b600282019050919050565b6000612a286020836130b5565b9150612a338261389e565b602082019050919050565b6000612a4b6031836130b5565b9150612a56826138c7565b604082019050919050565b6000612a6e602c836130b5565b9150612a7982613916565b604082019050919050565b6000612a91602f836130b5565b9150612a9c82613965565b604082019050919050565b6000612ab4600a836130c6565b9150612abf826139b4565b600a82019050919050565b6000612ad76021836130b5565b9150612ae2826139dd565b604082019050919050565b6000612afa600a836130c6565b9150612b0582613a2c565b600a82019050919050565b6000612b1d601d836130c6565b9150612b2882613a55565b601d82019050919050565b6000612b406031836130b5565b9150612b4b82613a7e565b604082019050919050565b612b5f81613250565b82525050565b6000612b71828461273b565b915081905092915050565b6000612b88828561273b565b9150612b94828461273b565b91508190509392505050565b6000612bac828661273b565b9150612bb8828561273b565b9150612bc4828461273b565b9150819050949350505050565b6000612bdd828561276c565b9150612be9828461273b565b9150612bf482612949565b91508190509392505050565b6000612c0b826127eb565b9150612c17828461273b565b915081905092915050565b6000612c2d82612877565b9150612c39828461273b565b915081905092915050565b6000612c4f82612903565b9150612c5b828461273b565b915081905092915050565b6000612c7182612aa7565b9150612c7d828561273b565b9150612c88826128e0565b9150612c94828461273b565b9150612c9f826129f8565b91508190509392505050565b6000612cb682612aed565b9150612cc2828461273b565b915081905092915050565b6000612cd882612b10565b9150612ce4828461273b565b915081905092915050565b6000602082019050612d0460008301846126ab565b92915050565b6000608082019050612d1f60008301876126ab565b612d2c60208301866126ab565b612d396040830185612b56565b8181036060830152612d4b81846126c9565b905095945050505050565b6000602082019050612d6b60008301846126ba565b92915050565b60006020820190508181036000830152612d8b8184612702565b905092915050565b60006040820190508181036000830152612dad8185612702565b90508181036020830152612dc18184612702565b90509392505050565b60006060820190508181036000830152612de48186612702565b9050612df36020830185612b56565b612e0060408301846126ab565b949350505050565b60006020820190508181036000830152612e218161280e565b9050919050565b60006020820190508181036000830152612e4181612831565b9050919050565b60006020820190508181036000830152612e6181612854565b9050919050565b60006020820190508181036000830152612e818161289a565b9050919050565b60006020820190508181036000830152612ea1816128bd565b9050919050565b60006020820190508181036000830152612ec181612926565b9050919050565b60006020820190508181036000830152612ee18161296c565b9050919050565b60006020820190508181036000830152612f018161298f565b9050919050565b60006020820190508181036000830152612f21816129b2565b9050919050565b60006020820190508181036000830152612f41816129d5565b9050919050565b60006020820190508181036000830152612f6181612a1b565b9050919050565b60006020820190508181036000830152612f8181612a3e565b9050919050565b60006020820190508181036000830152612fa181612a61565b9050919050565b60006020820190508181036000830152612fc181612a84565b9050919050565b60006020820190508181036000830152612fe181612aca565b9050919050565b6000602082019050818103600083015261300181612b33565b9050919050565b600060208201905061301d6000830184612b56565b92915050565b600061302d61303e565b905061303982826132ce565b919050565b6000604051905090565b600067ffffffffffffffff82111561306357613062613406565b5b61306c82613435565b9050602081019050919050565b60008190508160005260206000209050919050565b600081519050919050565b600081519050919050565b600082825260208201905092915050565b600082825260208201905092915050565b600081905092915050565b60006130dc82613250565b91506130e783613250565b9250827fffffffffffffffffffffffffffffffffffffffffffffffffffffffffffffffff0382111561311c5761311b613379565b5b828201905092915050565b600061313282613250565b915061313d83613250565b92508261314d5761314c6133a8565b5b828204905092915050565b600061316382613250565b915061316e83613250565b9250817fffffffffffffffffffffffffffffffffffffffffffffffffffffffffffffffff04831182151516156131a7576131a6613379565b5b828202905092915050565b60006131bd82613250565b91506131c883613250565b9250828210156131db576131da613379565b5b828203905092915050565b60006131f182613230565b9050919050565b60008115159050919050565b60007fffffffff0000000000000000000000000000000000000000000000000000000082169050919050565b600073ffffffffffffffffffffffffffffffffffffffff82169050919050565b6000819050919050565b82818337600083830152505050565b60005b8381101561328757808201518184015260208101905061326c565b83811115613296576000848401525b50505050565b600060028204905060018216806132b457607f821691505b602082108114156132c8576132c76133d7565b5b50919050565b6132d782613435565b810181811067ffffffffffffffff821117156132f6576132f5613406565b5b80604052505050565b600061330a82613250565b91507fffffffffffffffffffffffffffffffffffffffffffffffffffffffffffffffff82141561333d5761333c613379565b5b600182019050919050565b600061335382613250565b915061335e83613250565b92508261336e5761336d6133a8565b5b828206905092915050565b7f4e487b7100000000000000000000000000000000000000000000000000000000600052601160045260246000fd5b7f4e487b7100000000000000000000000000000000000000000000000000000000600052601260045260246000fd5b7f4e487b7100000000000000000000000000000000000000000000000000000000600052602260045260246000fd5b7f4e487b7100000000000000000000000000000000000000000000000000000000600052604160045260246000fd5b6000601f19601f8301169050919050565b7f68747470733a2f2f6e6674707265766965772e30786465762e636f6465732f3f60008201527f636f64653d000000000000000000000000000000000000000000000000000000602082015250565b7f4552433732313a207472616e7366657220746f206e6f6e20455243373231526560008201527f63656976657220696d706c656d656e7465720000000000000000000000000000602082015250565b7f4552433732313a207472616e736665722066726f6d20696e636f72726563742060008201527f6f776e6572000000000000000000000000000000000000000000000000000000602082015250565b7f4552433732313a20746f6b656e20616c7265616479206d696e74656400000000600082015250565b7f54484952445f574f524400000000000000000000000000000000000000000000600082015250565b7f4552433732313a207472616e7366657220746f20746865207a65726f2061646460008201527f7265737300000000000000000000000000000000000000000000000000000000602082015250565b7f4552433732313a20617070726f766520746f2063616c6c657200000000000000600082015250565b7f222c20226465736372697074696f6e223a20224120686967686c79206163636c60008201527f61696d656420636f6c6c656374696f6e206f6620737175617265732e222c202260208201527f696d616765223a2022646174613a696d6167652f7376672b786d6c3b6261736560408201527f36342c0000000000000000000000000000000000000000000000000000000000606082015250565b7f5345434f4e445f574f5244000000000000000000000000000000000000000000600082015250565b7f4552433732313a206f70657261746f7220717565727920666f72206e6f6e657860008201527f697374656e7420746f6b656e0000000000000000000000000000000000000000602082015250565b7f3c2f746578743e3c2f7376673e00000000000000000000000000000000000000600082015250565b7f4552433732313a20617070726f76652063616c6c6572206973206e6f74206f7760008201527f6e6572206e6f7220617070726f76656420666f7220616c6c0000000000000000602082015250565b7f4552433732313a2062616c616e636520717565727920666f7220746865207a6560008201527f726f206164647265737300000000000000000000000000000000000000000000602082015250565b7f4552433732313a206f776e657220717565727920666f72206e6f6e657869737460008201527f656e7420746f6b656e0000000000000000000000000000000000000000000000602082015250565b7f45524337323155524953746f726167653a2055524920736574206f66206e6f6e60008201527f6578697374656e7420746f6b656e000000000000000000000000000000000000602082015250565b7f227d000000000000000000000000000000000000000000000000000000000000600082015250565b7f4552433732313a206d696e7420746f20746865207a65726f2061646472657373600082015250565b7f45524337323155524953746f726167653a2055524920717565727920666f722060008201527f6e6f6e6578697374656e7420746f6b656e000000000000000000000000000000602082015250565b7f4552433732313a20617070726f76656420717565727920666f72206e6f6e657860008201527f697374656e7420746f6b656e0000000000000000000000000000000000000000602082015250565b7f4552433732314d657461646174613a2055524920717565727920666f72206e6f60008201527f6e6578697374656e7420746f6b656e0000000000000000000000000000000000602082015250565b7f7b226e616d65223a202200000000000000000000000000000000000000000000600082015250565b7f4552433732313a20617070726f76616c20746f2063757272656e74206f776e6560008201527f7200000000000000000000000000000000000000000000000000000000000000602082015250565b7f46495253545f574f524400000000000000000000000000000000000000000000600082015250565b7f646174613a6170706c69636174696f6e2f6a736f6e3b6261736536342c000000600082015250565b7f4552433732313a207472616e736665722063616c6c6572206973206e6f74206f60008201527f776e6572206e6f7220617070726f766564000000000000000000000000000000602082015250565b613ad6816131e6565b8114613ae157600080fd5b50565b613aed816131f8565b8114613af857600080fd5b50565b613b0481613204565b8114613b0f57600080fd5b50565b613b1b81613250565b8114613b2657600080fd5b5056fe416e204e465420772f20494420257320686173206265656e206d696e74656420746f2025734142434445464748494a4b4c4d4e4f505152535455565758595a6162636465666768696a6b6c6d6e6f707172737475767778797a303132333435363738392b2fa2646970667358221220c389a1618af65ff4886292d3c977785cd4536badaba24634d2306204613bd2bb64736f6c6343000804003354686973204e465420697320696e73706972656420627920746865204967626f2d4c616e64696e672e3c73766720786d6c6e733d27687474703a2f2f7777772e77332e6f72672f323030302f73766727207072657365727665417370656374526174696f3d27784d696e594d696e206d656574272076696577426f783d273020302033353020333530273e3c7374796c653e2e62617365207b2066696c6c3a2077686974653b20666f6e742d66616d696c793a2073657269663b20666f6e742d73697a653a20323470783b207d3c2f7374796c653e3c726563742077696474683d273130302527206865696768743d2731303025272066696c6c3d27626c61636b27202f3e3c7465787420783d273530252720793d273530252720636c6173733d27626173652720646f6d696e616e742d626173656c696e653d276d6964646c652720746578742d616e63686f723d276d6964646c65273e",
  "linkReferences": {},
  "deployedLinkReferences": {}
}