{
  "_format": "hh-sol-artifact-1",
  "contractName": "WavePortal",
  "sourceName": "contracts/WavePortal.sol",
  "abi": [
    {
      "inputs": [],
      "stateMutability": "payable",
      "type": "constructor"
    },
    {
      "anonymous": false,
      "inputs": [
        {
          "indexed": true,
          "internalType": "address",
          "name": "from",
          "type": "address"
        },
        {
          "indexed": false,
          "internalType": "uint256",
          "name": "timestamp",
          "type": "uint256"
        },
        {
          "indexed": false,
          "internalType": "string",
          "name": "message",
          "type": "string"
        }
      ],
      "name": "NewWave",
      "type": "event"
    },
    {
      "inputs": [],
      "name": "getAllWaves",
      "outputs": [
        {
          "components": [
            {
              "internalType": "address",
              "name": "waver",
              "type": "address"
            },
            {
              "internalType": "string",
              "name": "message",
              "type": "string"
            },
            {
              "internalType": "uint256",
              "name": "timestamp",
              "type": "uint256"
            }
          ],
          "internalType": "struct WavePortal.Wave[]",
          "name": "",
          "type": "tuple[]"
        }
      ],
      "stateMutability": "view",
      "type": "function"
    },
    {
      "inputs": [],
      "name": "getTotalWaves",
      "outputs": [
        {
          "internalType": "uint256",
          "name": "",
          "type": "uint256"
        }
      ],
      "stateMutability": "view",
      "type": "function"
    },
    {
      "inputs": [
        {
          "internalType": "address",
          "name": "",
          "type": "address"
        }
      ],
      "name": "lastWavedAt",
      "outputs": [
        {
          "internalType": "uint256",
          "name": "",
          "type": "uint256"
        }
      ],
      "stateMutability": "view",
      "type": "function"
    },
    {
      "inputs": [
        {
          "internalType": "string",
          "name": "_message",
          "type": "string"
        }
      ],
      "name": "wave",
      "outputs": [],
      "stateMutability": "nonpayable",
      "type": "function"
    }
  ],
  "bytecode": "0x608060405262000033604051806060016040528060238152602001620017d9602391396200005b60201b620007401760201c565b6064444262000043919062000160565b6200004f9190620001ca565b600181905550620002c0565b620000fb816040516024016200007291906200029c565b6040516020818303038152906040527f41304fac000000000000000000000000000000000000000000000000000000007bffffffffffffffffffffffffffffffffffffffffffffffffffffffff19166020820180517bffffffffffffffffffffffffffffffffffffffffffffffffffffffff8381831617835250505050620000fe60201b60201c565b50565b60008151905060006a636f6e736f6c652e6c6f679050602083016000808483855afa5050505050565b6000819050919050565b7f4e487b7100000000000000000000000000000000000000000000000000000000600052601160045260246000fd5b60006200016d8262000127565b91506200017a8362000127565b925082820190508082111562000195576200019462000131565b5b92915050565b7f4e487b7100000000000000000000000000000000000000000000000000000000600052601260045260246000fd5b6000620001d78262000127565b9150620001e48362000127565b925082620001f757620001f66200019b565b5b828206905092915050565b600081519050919050565b600082825260208201905092915050565b60005b838110156200023e57808201518184015260208101905062000221565b60008484015250505050565b6000601f19601f8301169050919050565b6000620002688262000202565b6200027481856200020d565b9350620002868185602086016200021e565b62000291816200024a565b840191505092915050565b60006020820190508181036000830152620002b881846200025b565b905092915050565b61150980620002d06000396000f3fe608060405234801561001057600080fd5b506004361061004c5760003560e01c8063449d46c0146100515780639a2cdc081461006d578063a42a46631461008b578063bd43a908146100bb575b600080fd5b61006b60048036038101906100669190610b33565b6100d9565b005b61007561058c565b6040516100829190610b95565b60405180910390f35b6100a560048036038101906100a09190610c0e565b6105d7565b6040516100b29190610b95565b60405180910390f35b6100c36105ef565b6040516100d09190610dea565b60405180910390f35b42610384600360003373ffffffffffffffffffffffffffffffffffffffff1673ffffffffffffffffffffffffffffffffffffffff168152602001908152602001600020546101279190610e3b565b10610167576040517f08c379a000000000000000000000000000000000000000000000000000000000815260040161015e90610ecc565b60405180910390fd5b42600360003373ffffffffffffffffffffffffffffffffffffffff1673ffffffffffffffffffffffffffffffffffffffff1681526020019081526020016000208190555060016000808282546101bd9190610e3b565b925050819055506102046040518060400160405280601981526020017f25732077617665642077697468206d657373616765202573210000000000000081525033836107d9565b6102436040518060400160405280601581526020017f257320626c6f636b2074696d657374616d70202573000000000000000000000081525042610878565b6102c16040518060400160405280601981526020017f2573206c61737420776176652066726f6d207573657220257300000000000000815250600360003373ffffffffffffffffffffffffffffffffffffffff1673ffffffffffffffffffffffffffffffffffffffff16815260200190815260200160002054610878565b600260405180606001604052803373ffffffffffffffffffffffffffffffffffffffff16815260200183815260200142815250908060018154018082558091505060019003906000526020600020906003020160009091909190915060008201518160000160006101000a81548173ffffffffffffffffffffffffffffffffffffffff021916908373ffffffffffffffffffffffffffffffffffffffff160217905550602082015181600101908161037991906110f8565b50604082015181600201555050606460015442446103979190610e3b565b6103a19190610e3b565b6103ab91906111f9565b6001819055506103f26040518060400160405280601681526020017f52616e646f6d20232067656e6572617465643a20256400000000000000000000815250600154610878565b600a60015410156105395761043c6040518060400160405280600781526020017f257320776f6e210000000000000000000000000000000000000000000000000081525033610914565b6000655af3107a400090504781111561048a576040517f08c379a00000000000000000000000000000000000000000000000000000000081526004016104819061129c565b60405180910390fd5b60003373ffffffffffffffffffffffffffffffffffffffff16826040516104b0906112ed565b60006040518083038185875af1925050503d80600081146104ed576040519150601f19603f3d011682016040523d82523d6000602084013e6104f2565b606091505b5050905080610536576040517f08c379a000000000000000000000000000000000000000000000000000000000815260040161052d90611374565b60405180910390fd5b50505b3373ffffffffffffffffffffffffffffffffffffffff167f5f7e16dc676677766a70e9c5628aa6c54ddb8b6e5188e2ae1e1f17f1ffbea71642836040516105819291906113cd565b60405180910390a250565b60006105cf6040518060400160405280601581526020017f576527766520256420746f74616c207761766573210000000000000000000000815250600054610878565b600054905090565b60036020528060005260406000206000915090505481565b60606002805480602002602001604051908101604052809291908181526020016000905b8282101561073757838290600052602060002090600302016040518060600160405290816000820160009054906101000a900473ffffffffffffffffffffffffffffffffffffffff1673ffffffffffffffffffffffffffffffffffffffff1673ffffffffffffffffffffffffffffffffffffffff16815260200160018201805461069c90610f1b565b80601f01602080910402602001604051908101604052809291908181526020018280546106c890610f1b565b80156107155780601f106106ea57610100808354040283529160200191610715565b820191906000526020600020905b8154815290600101906020018083116106f857829003601f168201915b5050505050815260200160028201548152505081526020019060010190610613565b50505050905090565b6107d68160405160240161075491906113fd565b6040516020818303038152906040527f41304fac000000000000000000000000000000000000000000000000000000007bffffffffffffffffffffffffffffffffffffffffffffffffffffffff19166020820180517bffffffffffffffffffffffffffffffffffffffffffffffffffffffff83818316178352505050506109b0565b50565b6108738383836040516024016107f19392919061142e565b6040516020818303038152906040527fe0e9ad4f000000000000000000000000000000000000000000000000000000007bffffffffffffffffffffffffffffffffffffffffffffffffffffffff19166020820180517bffffffffffffffffffffffffffffffffffffffffffffffffffffffff83818316178352505050506109b0565b505050565b610910828260405160240161088e929190611473565b6040516020818303038152906040527f9710a9d0000000000000000000000000000000000000000000000000000000007bffffffffffffffffffffffffffffffffffffffffffffffffffffffff19166020820180517bffffffffffffffffffffffffffffffffffffffffffffffffffffffff83818316178352505050506109b0565b5050565b6109ac828260405160240161092a9291906114a3565b6040516020818303038152906040527f319af333000000000000000000000000000000000000000000000000000000007bffffffffffffffffffffffffffffffffffffffffffffffffffffffff19166020820180517bffffffffffffffffffffffffffffffffffffffffffffffffffffffff83818316178352505050506109b0565b5050565b60008151905060006a636f6e736f6c652e6c6f679050602083016000808483855afa5050505050565b6000604051905090565b600080fd5b600080fd5b600080fd5b600080fd5b6000601f19601f8301169050919050565b7f4e487b7100000000000000000000000000000000000000000000000000000000600052604160045260246000fd5b610a40826109f7565b810181811067ffffffffffffffff82111715610a5f57610a5e610a08565b5b80604052505050565b6000610a726109d9565b9050610a7e8282610a37565b919050565b600067ffffffffffffffff821115610a9e57610a9d610a08565b5b610aa7826109f7565b9050602081019050919050565b82818337600083830152505050565b6000610ad6610ad184610a83565b610a68565b905082815260208101848484011115610af257610af16109f2565b5b610afd848285610ab4565b509392505050565b600082601f830112610b1a57610b196109ed565b5b8135610b2a848260208601610ac3565b91505092915050565b600060208284031215610b4957610b486109e3565b5b600082013567ffffffffffffffff811115610b6757610b666109e8565b5b610b7384828501610b05565b91505092915050565b6000819050919050565b610b8f81610b7c565b82525050565b6000602082019050610baa6000830184610b86565b92915050565b600073ffffffffffffffffffffffffffffffffffffffff82169050919050565b6000610bdb82610bb0565b9050919050565b610beb81610bd0565b8114610bf657600080fd5b50565b600081359050610c0881610be2565b92915050565b600060208284031215610c2457610c236109e3565b5b6000610c3284828501610bf9565b91505092915050565b600081519050919050565b600082825260208201905092915050565b6000819050602082019050919050565b610c7081610bd0565b82525050565b600081519050919050565b600082825260208201905092915050565b60005b83811015610cb0578082015181840152602081019050610c95565b60008484015250505050565b6000610cc782610c76565b610cd18185610c81565b9350610ce1818560208601610c92565b610cea816109f7565b840191505092915050565b610cfe81610b7c565b82525050565b6000606083016000830151610d1c6000860182610c67565b5060208301518482036020860152610d348282610cbc565b9150506040830151610d496040860182610cf5565b508091505092915050565b6000610d608383610d04565b905092915050565b6000602082019050919050565b6000610d8082610c3b565b610d8a8185610c46565b935083602082028501610d9c85610c57565b8060005b85811015610dd85784840389528151610db98582610d54565b9450610dc483610d68565b925060208a01995050600181019050610da0565b50829750879550505050505092915050565b60006020820190508181036000830152610e048184610d75565b905092915050565b7f4e487b7100000000000000000000000000000000000000000000000000000000600052601160045260246000fd5b6000610e4682610b7c565b9150610e5183610b7c565b9250828201905080821115610e6957610e68610e0c565b5b92915050565b600082825260208201905092915050565b7f57616974203135206d696e7574657320746f20776169766520616761696e0000600082015250565b6000610eb6601e83610e6f565b9150610ec182610e80565b602082019050919050565b60006020820190508181036000830152610ee581610ea9565b9050919050565b7f4e487b7100000000000000000000000000000000000000000000000000000000600052602260045260246000fd5b60006002820490506001821680610f3357607f821691505b602082108103610f4657610f45610eec565b5b50919050565b60008190508160005260206000209050919050565b60006020601f8301049050919050565b600082821b905092915050565b600060088302610fae7fffffffffffffffffffffffffffffffffffffffffffffffffffffffffffffffff82610f71565b610fb88683610f71565b95508019841693508086168417925050509392505050565b6000819050919050565b6000610ff5610ff0610feb84610b7c565b610fd0565b610b7c565b9050919050565b6000819050919050565b61100f83610fda565b61102361101b82610ffc565b848454610f7e565b825550505050565b600090565b61103861102b565b611043818484611006565b505050565b5b818110156110675761105c600082611030565b600181019050611049565b5050565b601f8211156110ac5761107d81610f4c565b61108684610f61565b81016020851015611095578190505b6110a96110a185610f61565b830182611048565b50505b505050565b600082821c905092915050565b60006110cf600019846008026110b1565b1980831691505092915050565b60006110e883836110be565b9150826002028217905092915050565b61110182610c76565b67ffffffffffffffff81111561111a57611119610a08565b5b6111248254610f1b565b61112f82828561106b565b600060209050601f8311600181146111625760008415611150578287015190505b61115a85826110dc565b8655506111c2565b601f19841661117086610f4c565b60005b8281101561119857848901518255600182019150602085019450602081019050611173565b868310156111b557848901516111b1601f8916826110be565b8355505b6001600288020188555050505b505050505050565b7f4e487b7100000000000000000000000000000000000000000000000000000000600052601260045260246000fd5b600061120482610b7c565b915061120f83610b7c565b92508261121f5761121e6111ca565b5b828206905092915050565b7f547279696e6720746f207769746864726177206d6f7265206d6f6e657920746860008201527f616e2074686520636f6e7472616374206861732e000000000000000000000000602082015250565b6000611286603483610e6f565b91506112918261122a565b604082019050919050565b600060208201905081810360008301526112b581611279565b9050919050565b600081905092915050565b50565b60006112d76000836112bc565b91506112e2826112c7565b600082019050919050565b60006112f8826112ca565b9150819050919050565b7f4661696c656420746f207769746864726177206d6f6e65792066726f6d20636f60008201527f6e74726163742e00000000000000000000000000000000000000000000000000602082015250565b600061135e602783610e6f565b915061136982611302565b604082019050919050565b6000602082019050818103600083015261138d81611351565b9050919050565b600061139f82610c76565b6113a98185610e6f565b93506113b9818560208601610c92565b6113c2816109f7565b840191505092915050565b60006040820190506113e26000830185610b86565b81810360208301526113f48184611394565b90509392505050565b600060208201905081810360008301526114178184611394565b905092915050565b61142881610bd0565b82525050565b600060608201905081810360008301526114488186611394565b9050611457602083018561141f565b81810360408301526114698184611394565b9050949350505050565b6000604082019050818103600083015261148d8185611394565b905061149c6020830184610b86565b9392505050565b600060408201905081810360008301526114bd8185611394565b90506114cc602083018461141f565b939250505056fea2646970667358221220eb627fb527e63f17858f65d493dc5c8ab09a9e294c5f6ca7a2ae26797f9085e264736f6c63430008110033596f20796f2c2049276d206120636f6e747261637420616e642049276d20736d617274",
  "linkReferences": {},
  "deployedLinkReferences": {}
}